{
  "contractName": "Recyclers",
  "abi": [
    {
      "constant": true,
      "inputs": [
        {
          "name": "",
          "type": "uint256"
        }
      ],
      "name": "shipments",
      "outputs": [
        {
          "name": "id",
          "type": "uint256"
        },
        {
          "name": "type_id",
          "type": "uint256"
        },
        {
          "name": "raw_weight",
          "type": "uint256"
        },
        {
          "name": "recycled_weight",
          "type": "uint256"
        },
        {
          "name": "comunity_id",
          "type": "address"
        },
        {
          "name": "recycler_id",
          "type": "address"
        },
        {
          "name": "supervisor_id",
          "type": "address"
        },
        {
          "name": "status",
          "type": "uint8"
        }
      ],
      "payable": false,
      "stateMutability": "view",
      "type": "function"
    },
    {
      "constant": true,
      "inputs": [
        {
          "name": "",
          "type": "address"
        }
      ],
      "name": "comunities",
      "outputs": [
        {
          "name": "name",
          "type": "bytes32"
        },
        {
          "name": "id",
          "type": "address"
        },
        {
          "name": "balance",
          "type": "uint256"
        },
        {
          "name": "exist",
          "type": "bool"
        }
      ],
      "payable": false,
      "stateMutability": "view",
      "type": "function"
    },
    {
      "constant": true,
      "inputs": [
        {
          "name": "",
          "type": "address"
        }
      ],
      "name": "recyclers",
      "outputs": [
        {
          "name": "name",
          "type": "bytes32"
        },
        {
          "name": "id",
          "type": "address"
        },
        {
          "name": "exist",
          "type": "bool"
        }
      ],
      "payable": false,
      "stateMutability": "view",
      "type": "function"
    },
    {
      "constant": true,
      "inputs": [
        {
          "name": "",
          "type": "address"
        }
      ],
      "name": "supervisors",
      "outputs": [
        {
          "name": "name",
          "type": "bytes32"
        },
        {
          "name": "id",
          "type": "address"
        },
        {
          "name": "exist",
          "type": "bool"
        }
      ],
      "payable": false,
      "stateMutability": "view",
      "type": "function"
    },
    {
      "inputs": [],
      "payable": false,
      "stateMutability": "nonpayable",
      "type": "constructor"
    },
    {
      "anonymous": false,
      "inputs": [
        {
          "indexed": false,
          "name": "comunity_id",
          "type": "address"
        },
        {
          "indexed": false,
          "name": "balance",
          "type": "uint256"
        }
      ],
      "name": "ClaimReward",
      "type": "event"
    },
    {
      "constant": false,
      "inputs": [
        {
          "name": "_name",
          "type": "bytes32"
        },
        {
          "name": "_address",
          "type": "address"
        }
      ],
      "name": "addRecycler",
      "outputs": [],
      "payable": false,
      "stateMutability": "nonpayable",
      "type": "function"
    },
    {
      "constant": false,
      "inputs": [
        {
          "name": "_name",
          "type": "bytes32"
        },
        {
          "name": "_address",
          "type": "address"
        }
      ],
      "name": "addSupervisor",
      "outputs": [],
      "payable": false,
      "stateMutability": "nonpayable",
      "type": "function"
    },
    {
      "constant": false,
      "inputs": [
        {
          "name": "_name",
          "type": "bytes32"
        },
        {
          "name": "_address",
          "type": "address"
        }
      ],
      "name": "addComunity",
      "outputs": [],
      "payable": false,
      "stateMutability": "nonpayable",
      "type": "function"
    },
    {
      "constant": false,
      "inputs": [
        {
          "name": "id",
          "type": "uint256"
        },
        {
          "name": "type_id",
          "type": "uint256"
        },
        {
          "name": "raw_weight",
          "type": "uint256"
        },
        {
          "name": "comunity_id",
          "type": "address"
        }
      ],
      "name": "addNewPackageFactory",
      "outputs": [],
      "payable": false,
      "stateMutability": "nonpayable",
      "type": "function"
    },
    {
      "constant": false,
      "inputs": [
        {
          "name": "id",
          "type": "uint256"
        },
        {
          "name": "type_id",
          "type": "uint256"
        },
        {
          "name": "raw_weight",
          "type": "uint256"
        }
      ],
      "name": "addNewPackage",
      "outputs": [],
      "payable": false,
      "stateMutability": "nonpayable",
      "type": "function"
    },
    {
      "constant": false,
      "inputs": [
        {
          "name": "package_id",
          "type": "uint256"
        }
      ],
      "name": "processPackage",
      "outputs": [],
      "payable": false,
      "stateMutability": "nonpayable",
      "type": "function"
    },
    {
      "constant": false,
      "inputs": [
        {
          "name": "package_id",
          "type": "uint256"
        },
        {
          "name": "recycled_weight",
          "type": "uint256"
        }
      ],
      "name": "deliverPackage",
      "outputs": [],
      "payable": false,
      "stateMutability": "nonpayable",
      "type": "function"
    },
    {
      "constant": false,
      "inputs": [
        {
          "name": "package_id",
          "type": "uint256"
        }
      ],
      "name": "confirmPackage",
      "outputs": [],
      "payable": false,
      "stateMutability": "nonpayable",
      "type": "function"
    },
    {
      "constant": true,
      "inputs": [],
      "name": "getPackages",
      "outputs": [
        {
          "name": "",
          "type": "uint256[]"
        },
        {
          "name": "",
          "type": "uint256[]"
        },
        {
          "name": "",
          "type": "uint256[]"
        },
        {
          "name": "",
          "type": "uint256[]"
        },
        {
          "name": "",
          "type": "uint256[]"
        }
      ],
      "payable": false,
      "stateMutability": "view",
      "type": "function"
    },
    {
      "constant": false,
      "inputs": [],
      "name": "claimReward",
      "outputs": [],
      "payable": false,
      "stateMutability": "nonpayable",
      "type": "function"
    }
  ],
  "bytecode": "0x608060405234801561001057600080fd5b50611797806100206000396000f3006080604052600436106100d0576000357c0100000000000000000000000000000000000000000000000000000000900463ffffffff1680631ba2d874146100d55780632ac08a931461010c5780632aed2306146102105780633d037416146102b45780635c05a89f14610305578063772c29ce146104915780637a3a9cbd146104e2578063854994081461057f578063a451e021146105e0578063b88a802f1461060d578063d9b9c64814610624578063dc2d8a4a14610675578063e548e3e7146106b6578063e583805514610753575b600080fd5b3480156100e157600080fd5b5061010a6004803603810190808035906020019092919080359060200190929190505050610780565b005b34801561011857600080fd5b50610137600480360381019080803590602001909291905050506107d7565b604051808981526020018881526020018781526020018681526020018573ffffffffffffffffffffffffffffffffffffffff1673ffffffffffffffffffffffffffffffffffffffff1681526020018473ffffffffffffffffffffffffffffffffffffffff1673ffffffffffffffffffffffffffffffffffffffff1681526020018373ffffffffffffffffffffffffffffffffffffffff1673ffffffffffffffffffffffffffffffffffffffff1681526020018260038111156101f557fe5b60ff1681526020019850505050505050505060405180910390f35b34801561021c57600080fd5b50610251600480360381019080803573ffffffffffffffffffffffffffffffffffffffff16906020019092919050505061088c565b6040518085600019166000191681526020018473ffffffffffffffffffffffffffffffffffffffff1673ffffffffffffffffffffffffffffffffffffffff1681526020018381526020018215151515815260200194505050505060405180910390f35b3480156102c057600080fd5b506103036004803603810190808035600019169060200190929190803573ffffffffffffffffffffffffffffffffffffffff1690602001909291905050506108e9565b005b34801561031157600080fd5b5061031a6109df565b60405180806020018060200180602001806020018060200186810386528b818151815260200191508051906020019060200280838360005b8381101561036d578082015181840152602081019050610352565b5050505090500186810385528a818151815260200191508051906020019060200280838360005b838110156103af578082015181840152602081019050610394565b50505050905001868103845289818151815260200191508051906020019060200280838360005b838110156103f15780820151818401526020810190506103d6565b50505050905001868103835288818151815260200191508051906020019060200280838360005b83811015610433578082015181840152602081019050610418565b50505050905001868103825287818151815260200191508051906020019060200280838360005b8381101561047557808201518184015260208101905061045a565b505050509050019a505050505050505050505060405180910390f35b34801561049d57600080fd5b506104e06004803603810190808035600019169060200190929190803573ffffffffffffffffffffffffffffffffffffffff169060200190929190505050610ccc565b005b3480156104ee57600080fd5b50610523600480360381019080803573ffffffffffffffffffffffffffffffffffffffff169060200190929190505050610dd3565b6040518084600019166000191681526020018373ffffffffffffffffffffffffffffffffffffffff1673ffffffffffffffffffffffffffffffffffffffff16815260200182151515158152602001935050505060405180910390f35b34801561058b57600080fd5b506105de600480360381019080803590602001909291908035906020019092919080359060200190929190803573ffffffffffffffffffffffffffffffffffffffff169060200190929190505050610e2a565b005b3480156105ec57600080fd5b5061060b6004803603810190808035906020019092919050505061101b565b005b34801561061957600080fd5b506106226110aa565b005b34801561063057600080fd5b506106736004803603810190808035600019169060200190929190803573ffffffffffffffffffffffffffffffffffffffff1690602001909291905050506111a7565b005b34801561068157600080fd5b506106b460048036038101908080359060200190929190803590602001909291908035906020019092919050505061129d565b005b3480156106c257600080fd5b506106f7600480360381019080803573ffffffffffffffffffffffffffffffffffffffff1690602001909291905050506114f9565b6040518084600019166000191681526020018373ffffffffffffffffffffffffffffffffffffffff1673ffffffffffffffffffffffffffffffffffffffff16815260200182151515158152602001935050505060405180910390f35b34801561075f57600080fd5b5061077e60048036038101908080359060200190929190505050611550565b005b80600160008481526020019081526020016000206003018190555060026001600084815260200190815260200160002060060160146101000a81548160ff021916908360038111156107ce57fe5b02179055505050565b60016020528060005260406000206000915090508060000154908060010154908060020154908060030154908060040160009054906101000a900473ffffffffffffffffffffffffffffffffffffffff16908060050160009054906101000a900473ffffffffffffffffffffffffffffffffffffffff16908060060160009054906101000a900473ffffffffffffffffffffffffffffffffffffffff16908060060160149054906101000a900460ff16905088565b60026020528060005260406000206000915090508060000154908060010160009054906101000a900473ffffffffffffffffffffffffffffffffffffffff16908060020154908060030160009054906101000a900460ff16905084565b606060405190810160405280836000191681526020018273ffffffffffffffffffffffffffffffffffffffff16815260200160011515815250600460008373ffffffffffffffffffffffffffffffffffffffff1673ffffffffffffffffffffffffffffffffffffffff1681526020019081526020016000206000820151816000019060001916905560208201518160010160006101000a81548173ffffffffffffffffffffffffffffffffffffffff021916908373ffffffffffffffffffffffffffffffffffffffff16021790555060408201518160010160146101000a81548160ff0219169083151502179055509050505050565b60608060608060608060608060608060008080549050604051908082528060200260200182016040528015610a235781602001602082028038833980820191505090505b509550600080549050604051908082528060200260200182016040528015610a5a5781602001602082028038833980820191505090505b509450600080549050604051908082528060200260200182016040528015610a915781602001602082028038833980820191505090505b509350600080549050604051908082528060200260200182016040528015610ac85781602001602082028038833980820191505090505b509250600080549050604051908082528060200260200182016040528015610aff5781602001602082028038833980820191505090505b509150600090505b600080549050811015610cb057600160008083815481101515610b2657fe5b90600052602060002001548152602001908152602001600020600001548682815181101515610b5157fe5b9060200190602002018181525050600160008083815481101515610b7157fe5b90600052602060002001548152602001908152602001600020600001548582815181101515610b9c57fe5b9060200190602002018181525050600160008083815481101515610bbc57fe5b90600052602060002001548152602001908152602001600020600201548482815181101515610be757fe5b9060200190602002018181525050600160008083815481101515610c0757fe5b90600052602060002001548152602001908152602001600020600301548382815181101515610c3257fe5b9060200190602002018181525050600160008083815481101515610c5257fe5b9060005260206000200154815260200190815260200160002060060160149054906101000a900460ff166003811115610c8757fe5b8282815181101515610c9557fe5b90602001906020020181815250508080600101915050610b07565b85858585859a509a509a509a509a505050505050509091929394565b608060405190810160405280836000191681526020018273ffffffffffffffffffffffffffffffffffffffff1681526020016000815260200160011515815250600260008373ffffffffffffffffffffffffffffffffffffffff1673ffffffffffffffffffffffffffffffffffffffff1681526020019081526020016000206000820151816000019060001916905560208201518160010160006101000a81548173ffffffffffffffffffffffffffffffffffffffff021916908373ffffffffffffffffffffffffffffffffffffffff1602179055506040820151816002015560608201518160030160006101000a81548160ff0219169083151502179055509050505050565b60036020528060005260406000206000915090508060000154908060010160009054906101000a900473ffffffffffffffffffffffffffffffffffffffff16908060010160149054906101000a900460ff16905083565b610e326116d8565b84816000018181525050838160200181815250508281604001818152505060008160e001906003811115610e6257fe5b90816003811115610e6f57fe5b8152505081816080019073ffffffffffffffffffffffffffffffffffffffff16908173ffffffffffffffffffffffffffffffffffffffff168152505080600160008781526020019081526020016000206000820151816000015560208201518160010155604082015181600201556060820151816003015560808201518160040160006101000a81548173ffffffffffffffffffffffffffffffffffffffff021916908373ffffffffffffffffffffffffffffffffffffffff16021790555060a08201518160050160006101000a81548173ffffffffffffffffffffffffffffffffffffffff021916908373ffffffffffffffffffffffffffffffffffffffff16021790555060c08201518160060160006101000a81548173ffffffffffffffffffffffffffffffffffffffff021916908373ffffffffffffffffffffffffffffffffffffffff16021790555060e08201518160060160146101000a81548160ff02191690836003811115610fe057fe5b021790555090505060008590806001815401808255809150509060018203906000526020600020016000909192909190915055505050505050565b336001600083815260200190815260200160002060050160006101000a81548173ffffffffffffffffffffffffffffffffffffffff021916908373ffffffffffffffffffffffffffffffffffffffff160217905550600180600083815260200190815260200160002060060160146101000a81548160ff021916908360038111156110a257fe5b021790555050565b6000600260003373ffffffffffffffffffffffffffffffffffffffff1673ffffffffffffffffffffffffffffffffffffffff1681526020019081526020016000206002015490506000600260003373ffffffffffffffffffffffffffffffffffffffff1673ffffffffffffffffffffffffffffffffffffffff168152602001908152602001600020600201819055507fba8de60c3403ec381d1d484652ea1980e3c3e56359195c92525bff4ce47ad98e3382604051808373ffffffffffffffffffffffffffffffffffffffff1673ffffffffffffffffffffffffffffffffffffffff1681526020018281526020019250505060405180910390a150565b606060405190810160405280836000191681526020018273ffffffffffffffffffffffffffffffffffffffff16815260200160011515815250600360008373ffffffffffffffffffffffffffffffffffffffff1673ffffffffffffffffffffffffffffffffffffffff1681526020019081526020016000206000820151816000019060001916905560208201518160010160006101000a81548173ffffffffffffffffffffffffffffffffffffffff021916908373ffffffffffffffffffffffffffffffffffffffff16021790555060408201518160010160146101000a81548160ff0219169083151502179055509050505050565b6112a56116d8565b83816000018181525050828160200181815250508181604001818152505060008160e0019060038111156112d557fe5b908160038111156112e257fe5b8152505033816080019073ffffffffffffffffffffffffffffffffffffffff16908173ffffffffffffffffffffffffffffffffffffffff168152505080600160008681526020019081526020016000206000820151816000015560208201518160010155604082015181600201556060820151816003015560808201518160040160006101000a81548173ffffffffffffffffffffffffffffffffffffffff021916908373ffffffffffffffffffffffffffffffffffffffff16021790555060a08201518160050160006101000a81548173ffffffffffffffffffffffffffffffffffffffff021916908373ffffffffffffffffffffffffffffffffffffffff16021790555060c08201518160060160006101000a81548173ffffffffffffffffffffffffffffffffffffffff021916908373ffffffffffffffffffffffffffffffffffffffff16021790555060e08201518160060160146101000a81548160ff0219169083600381111561145357fe5b021790555090505060008490806001815401808255809150509060018203906000526020600020016000909192909190915055507fba8de60c3403ec381d1d484652ea1980e3c3e56359195c92525bff4ce47ad98e336002604051808373ffffffffffffffffffffffffffffffffffffffff1673ffffffffffffffffffffffffffffffffffffffff1681526020018281526020019250505060405180910390a150505050565b60046020528060005260406000206000915090508060000154908060010160009054906101000a900473ffffffffffffffffffffffffffffffffffffffff16908060010160149054906101000a900460ff16905083565b336001600083815260200190815260200160002060060160006101000a81548173ffffffffffffffffffffffffffffffffffffffff021916908373ffffffffffffffffffffffffffffffffffffffff16021790555060036001600083815260200190815260200160002060060160146101000a81548160ff021916908360038111156115d857fe5b0217905550600a600260006001600085815260200190815260200160002060040160009054906101000a900473ffffffffffffffffffffffffffffffffffffffff1673ffffffffffffffffffffffffffffffffffffffff1673ffffffffffffffffffffffffffffffffffffffff1681526020019081526020016000206002015401600260006001600085815260200190815260200160002060040160009054906101000a900473ffffffffffffffffffffffffffffffffffffffff1673ffffffffffffffffffffffffffffffffffffffff1673ffffffffffffffffffffffffffffffffffffffff1681526020019081526020016000206002018190555050565b6101006040519081016040528060008152602001600081526020016000815260200160008152602001600073ffffffffffffffffffffffffffffffffffffffff168152602001600073ffffffffffffffffffffffffffffffffffffffff168152602001600073ffffffffffffffffffffffffffffffffffffffff1681526020016000600381111561176557fe5b815250905600a165627a7a72305820d9f3fb5ce8a8e0d06ced8178b42a441afe9b3690c1b67de58d5a484871b0d0a50029",
  "source": "//comunidades - Comunity\n//  - Entrega (+ tokens)\n//recicladoras - Recycler\n//  - Bloquea entrega\n//supervisor - Supervisor\n//  - Verifica salida\n//tokens\n//co2_conversor\n//materials\n\npragma solidity ^0.4.24;\n\ncontract Recyclers {\n\n  event ClaimReward(address comunity_id, uint balance);\n\n  enum PackageStates { Waiting, Processing, Delivered, Confirmed }\n\n  // await recycler.addComunity(\"Comunity1\", accounts[0]);\n  //  await recycler.addRecycler(\"Business1\", accounts[1]);\n  //  await recycler.addSupervisor(\"Supervisor1\", accounts[2]);\n  struct Package {\n    uint id;\n    uint type_id;\n    uint raw_weight;\n    uint recycled_weight;\n    address comunity_id;\n    address recycler_id;\n    address supervisor_id;\n    PackageStates status;\n  }\n\n  struct Comunity{\n    bytes32 name;\n    address id;\n    uint balance;\n    bool exist;\n  }\n\n  struct Recycler{\n    bytes32 name;\n    address id;\n    bool exist;\n  }\n\n  struct Supervisor{\n    bytes32 name;\n    address id;\n    bool exist;\n  }\n\n  uint[] private _packagesIds;\n\n  constructor () public {\n\n\n  }\n\n  mapping(uint => Package) public shipments;\n  mapping(address => Comunity) public comunities;\n  mapping(address => Recycler) public recyclers;\n  mapping(address => Supervisor) public supervisors;\n\n  function addRecycler (bytes32 _name, address _address) public {\n    recyclers[_address] = Recycler(_name, _address, true);\n  }\n\n  function addSupervisor (bytes32 _name, address _address) public {\n    supervisors[_address] = Supervisor(_name, _address, true);\n  }\n\n  function addComunity (bytes32 _name, address _address) public {\n    comunities[_address] = Comunity(_name, _address, 0, true);\n  }\n\n  function addNewPackageFactory (  uint id, uint type_id, uint raw_weight, address comunity_id) public {\n    Package memory newPackage;\n    newPackage.id = id;\n    newPackage.type_id = type_id;\n    newPackage.raw_weight = raw_weight;\n    newPackage.status = PackageStates.Waiting;\n    newPackage.comunity_id = comunity_id;\n    shipments[id] = newPackage;\n    _packagesIds.push(id);\n  }\n\n  function addNewPackage (  uint id, uint type_id, uint raw_weight) public {\n    Package memory newPackage;\n    newPackage.id = id;\n    newPackage.type_id = type_id;\n    newPackage.raw_weight = raw_weight;\n    newPackage.status = PackageStates.Waiting;\n    newPackage.comunity_id = msg.sender;\n    shipments[id] = newPackage;\n    _packagesIds.push(id);\n    emit ClaimReward(msg.sender, 2);\n  }\n\n  function processPackage( uint package_id) public{\n    shipments[package_id].recycler_id = msg.sender;\n    shipments[package_id].status = PackageStates.Processing;\n  }\n\n  function deliverPackage( uint package_id, uint recycled_weight) public{\n    //require(msg.sender == shipments[package_id].recycler_id);\n\n    shipments[package_id].recycled_weight = recycled_weight;\n    shipments[package_id].status = PackageStates.Delivered;\n  }\n\n  function confirmPackage( uint package_id) public{\n    shipments[package_id].supervisor_id = msg.sender;\n    shipments[package_id].status = PackageStates.Confirmed;\n    comunities[shipments[package_id].comunity_id].balance = comunities[shipments[package_id].comunity_id].balance + 10;\n  }\n\n  function getPackages() public constant returns( uint[], uint[], uint[], uint[], uint[]  ) {\n    uint[] memory package_ids = new uint[](_packagesIds.length);\n    uint[] memory package_types = new uint[](_packagesIds.length);\n    uint[] memory package_raw_weight = new uint[](_packagesIds.length);\n    uint[] memory package_recycled_weight = new uint[](_packagesIds.length);\n    uint[] memory package_status = new uint[](_packagesIds.length);\n    for (uint i = 0; i < _packagesIds.length; i++) {\n      package_ids[i] = shipments[_packagesIds[i]].id;\n      package_types[i] = shipments[_packagesIds[i]].id;\n      package_raw_weight[i] = shipments[_packagesIds[i]].raw_weight;\n      package_recycled_weight[i] = shipments[_packagesIds[i]].recycled_weight;\n      package_status[i] = uint(shipments[_packagesIds[i]].status);\n    }\n    return (package_ids, package_types, package_raw_weight, package_recycled_weight, package_status);\n  }\n\n  function claimReward() public{\n    var balance = comunities[msg.sender].balance;\n    comunities[msg.sender].balance = 0;\n    emit ClaimReward(msg.sender, balance);\n  }\n\n\n\n}\n",
  "sourcePath": "/home/bdev/tadhack/pretest/etsit-ethereum-truffle/contracts/Recyclers.sol",
  "compiler": {
    "name": "solc",
    "version": "0.4.24+commit.e67f0147.Emscripten.clang"
  },
  "schemaVersion": "2.0.1",
  "updatedAt": "2018-10-06T09:31:52.079Z"
}